{
  "_format": "hh-sol-artifact-1",
  "contractName": "Dungeon",
  "sourceName": "contracts/Dungeon.sol",
  "abi": [
    {
      "inputs": [
        {
          "internalType": "string",
          "name": "dungeonImageURI",
          "type": "string"
        }
      ],
      "stateMutability": "nonpayable",
      "type": "constructor"
    },
    {
      "anonymous": false,
      "inputs": [
        {
          "indexed": true,
          "internalType": "address",
          "name": "owner",
          "type": "address"
        },
        {
          "indexed": true,
          "internalType": "address",
          "name": "approved",
          "type": "address"
        },
        {
          "indexed": true,
          "internalType": "uint256",
          "name": "tokenId",
          "type": "uint256"
        }
      ],
      "name": "Approval",
      "type": "event"
    },
    {
      "anonymous": false,
      "inputs": [
        {
          "indexed": true,
          "internalType": "address",
          "name": "owner",
          "type": "address"
        },
        {
          "indexed": true,
          "internalType": "address",
          "name": "operator",
          "type": "address"
        },
        {
          "indexed": false,
          "internalType": "bool",
          "name": "approved",
          "type": "bool"
        }
      ],
      "name": "ApprovalForAll",
      "type": "event"
    },
    {
      "anonymous": false,
      "inputs": [
        {
          "indexed": true,
          "internalType": "address",
          "name": "previousOwner",
          "type": "address"
        },
        {
          "indexed": true,
          "internalType": "address",
          "name": "newOwner",
          "type": "address"
        }
      ],
      "name": "OwnershipTransferred",
      "type": "event"
    },
    {
      "anonymous": false,
      "inputs": [
        {
          "indexed": true,
          "internalType": "address",
          "name": "from",
          "type": "address"
        },
        {
          "indexed": true,
          "internalType": "address",
          "name": "to",
          "type": "address"
        },
        {
          "indexed": true,
          "internalType": "uint256",
          "name": "tokenId",
          "type": "uint256"
        }
      ],
      "name": "Transfer",
      "type": "event"
    },
    {
      "inputs": [
        {
          "internalType": "address",
          "name": "to",
          "type": "address"
        },
        {
          "internalType": "uint256",
          "name": "tokenId",
          "type": "uint256"
        }
      ],
      "name": "approve",
      "outputs": [],
      "stateMutability": "nonpayable",
      "type": "function"
    },
    {
      "inputs": [
        {
          "internalType": "address",
          "name": "owner",
          "type": "address"
        }
      ],
      "name": "balanceOf",
      "outputs": [
        {
          "internalType": "uint256",
          "name": "",
          "type": "uint256"
        }
      ],
      "stateMutability": "view",
      "type": "function"
    },
    {
      "inputs": [
        {
          "internalType": "uint256",
          "name": "tokenId",
          "type": "uint256"
        }
      ],
      "name": "getApproved",
      "outputs": [
        {
          "internalType": "address",
          "name": "",
          "type": "address"
        }
      ],
      "stateMutability": "view",
      "type": "function"
    },
    {
      "inputs": [
        {
          "internalType": "address",
          "name": "owner",
          "type": "address"
        },
        {
          "internalType": "address",
          "name": "operator",
          "type": "address"
        }
      ],
      "name": "isApprovedForAll",
      "outputs": [
        {
          "internalType": "bool",
          "name": "",
          "type": "bool"
        }
      ],
      "stateMutability": "view",
      "type": "function"
    },
    {
      "inputs": [
        {
          "internalType": "address",
          "name": "account",
          "type": "address"
        }
      ],
      "name": "isOwnerOfDungeons",
      "outputs": [
        {
          "internalType": "bool",
          "name": "",
          "type": "bool"
        }
      ],
      "stateMutability": "view",
      "type": "function"
    },
    {
      "inputs": [
        {
          "internalType": "string",
          "name": "_dungeonName",
          "type": "string"
        }
      ],
      "name": "mintDungeonNFT",
      "outputs": [],
      "stateMutability": "payable",
      "type": "function"
    },
    {
      "inputs": [],
      "name": "name",
      "outputs": [
        {
          "internalType": "string",
          "name": "",
          "type": "string"
        }
      ],
      "stateMutability": "view",
      "type": "function"
    },
    {
      "inputs": [
        {
          "internalType": "uint256",
          "name": "",
          "type": "uint256"
        }
      ],
      "name": "nftHolderAttributes",
      "outputs": [
        {
          "internalType": "string",
          "name": "name",
          "type": "string"
        },
        {
          "internalType": "string",
          "name": "imageURI",
          "type": "string"
        }
      ],
      "stateMutability": "view",
      "type": "function"
    },
    {
      "inputs": [
        {
          "internalType": "address",
          "name": "",
          "type": "address"
        }
      ],
      "name": "nftHolders",
      "outputs": [
        {
          "internalType": "uint256",
          "name": "",
          "type": "uint256"
        }
      ],
      "stateMutability": "view",
      "type": "function"
    },
    {
      "inputs": [],
      "name": "owner",
      "outputs": [
        {
          "internalType": "address",
          "name": "",
          "type": "address"
        }
      ],
      "stateMutability": "view",
      "type": "function"
    },
    {
      "inputs": [
        {
          "internalType": "uint256",
          "name": "tokenId",
          "type": "uint256"
        }
      ],
      "name": "ownerOf",
      "outputs": [
        {
          "internalType": "address",
          "name": "",
          "type": "address"
        }
      ],
      "stateMutability": "view",
      "type": "function"
    },
    {
      "inputs": [],
      "name": "renounceOwnership",
      "outputs": [],
      "stateMutability": "nonpayable",
      "type": "function"
    },
    {
      "inputs": [
        {
          "internalType": "address",
          "name": "from",
          "type": "address"
        },
        {
          "internalType": "address",
          "name": "to",
          "type": "address"
        },
        {
          "internalType": "uint256",
          "name": "tokenId",
          "type": "uint256"
        }
      ],
      "name": "safeTransferFrom",
      "outputs": [],
      "stateMutability": "nonpayable",
      "type": "function"
    },
    {
      "inputs": [
        {
          "internalType": "address",
          "name": "from",
          "type": "address"
        },
        {
          "internalType": "address",
          "name": "to",
          "type": "address"
        },
        {
          "internalType": "uint256",
          "name": "tokenId",
          "type": "uint256"
        },
        {
          "internalType": "bytes",
          "name": "_data",
          "type": "bytes"
        }
      ],
      "name": "safeTransferFrom",
      "outputs": [],
      "stateMutability": "nonpayable",
      "type": "function"
    },
    {
      "inputs": [
        {
          "internalType": "address",
          "name": "operator",
          "type": "address"
        },
        {
          "internalType": "bool",
          "name": "approved",
          "type": "bool"
        }
      ],
      "name": "setApprovalForAll",
      "outputs": [],
      "stateMutability": "nonpayable",
      "type": "function"
    },
    {
      "inputs": [
        {
          "internalType": "uint256",
          "name": "_price",
          "type": "uint256"
        }
      ],
      "name": "setPrice",
      "outputs": [],
      "stateMutability": "nonpayable",
      "type": "function"
    },
    {
      "inputs": [
        {
          "internalType": "bytes4",
          "name": "interfaceId",
          "type": "bytes4"
        }
      ],
      "name": "supportsInterface",
      "outputs": [
        {
          "internalType": "bool",
          "name": "",
          "type": "bool"
        }
      ],
      "stateMutability": "view",
      "type": "function"
    },
    {
      "inputs": [],
      "name": "symbol",
      "outputs": [
        {
          "internalType": "string",
          "name": "",
          "type": "string"
        }
      ],
      "stateMutability": "view",
      "type": "function"
    },
    {
      "inputs": [
        {
          "internalType": "uint256",
          "name": "tokenId",
          "type": "uint256"
        }
      ],
      "name": "tokenURI",
      "outputs": [
        {
          "internalType": "string",
          "name": "",
          "type": "string"
        }
      ],
      "stateMutability": "view",
      "type": "function"
    },
    {
      "inputs": [],
      "name": "totalContent",
      "outputs": [
        {
          "internalType": "uint256",
          "name": "",
          "type": "uint256"
        }
      ],
      "stateMutability": "view",
      "type": "function"
    },
    {
      "inputs": [
        {
          "internalType": "address",
          "name": "from",
          "type": "address"
        },
        {
          "internalType": "address",
          "name": "to",
          "type": "address"
        },
        {
          "internalType": "uint256",
          "name": "tokenId",
          "type": "uint256"
        }
      ],
      "name": "transferFrom",
      "outputs": [],
      "stateMutability": "nonpayable",
      "type": "function"
    },
    {
      "inputs": [
        {
          "internalType": "address",
          "name": "newOwner",
          "type": "address"
        }
      ],
      "name": "transferOwnership",
      "outputs": [],
      "stateMutability": "nonpayable",
      "type": "function"
    }
  ],
  "bytecode": "0x60806040526611c37937e080006008553480156200001c57600080fd5b5060405162003bcf38038062003bcf833981810160405281019062000042919062000415565b6040518060400160405280600781526020017f44756e67656f6e000000000000000000000000000000000000000000000000008152506040518060400160405280600781526020017f44554e47454f4e000000000000000000000000000000000000000000000000008152508160009080519060200190620000c6929190620002f3565b508060019080519060200190620000df929190620002f3565b50505062000102620000f66200015960201b60201c565b6200016160201b60201c565b6001600781905550806009908051906020019062000122929190620002f3565b506200015260405180606001604052806022815260200162003bad602291396200022760201b6200128a1760201c565b506200064b565b600033905090565b6000600660009054906101000a900473ffffffffffffffffffffffffffffffffffffffff16905081600660006101000a81548173ffffffffffffffffffffffffffffffffffffffff021916908373ffffffffffffffffffffffffffffffffffffffff1602179055508173ffffffffffffffffffffffffffffffffffffffff168173ffffffffffffffffffffffffffffffffffffffff167f8be0079c531659141344cd1fd0a4f28419497f9722a3daafe3b4186f6b6457e060405160405180910390a35050565b620002c7816040516024016200023e91906200049b565b6040516020818303038152906040527f41304fac000000000000000000000000000000000000000000000000000000007bffffffffffffffffffffffffffffffffffffffffffffffffffffffff19166020820180517bffffffffffffffffffffffffffffffffffffffffffffffffffffffff8381831617835250505050620002ca60201b60201c565b50565b60008151905060006a636f6e736f6c652e6c6f679050602083016000808483855afa5050505050565b828054620003019062000570565b90600052602060002090601f01602090048101928262000325576000855562000371565b82601f106200034057805160ff191683800117855562000371565b8280016001018555821562000371579182015b828111156200037057825182559160200191906001019062000353565b5b50905062000380919062000384565b5090565b5b808211156200039f57600081600090555060010162000385565b5090565b6000620003ba620003b484620004e8565b620004bf565b905082815260208101848484011115620003d357600080fd5b620003e08482856200053a565b509392505050565b600082601f830112620003fa57600080fd5b81516200040c848260208601620003a3565b91505092915050565b6000602082840312156200042857600080fd5b600082015167ffffffffffffffff8111156200044357600080fd5b6200045184828501620003e8565b91505092915050565b600062000467826200051e565b62000473818562000529565b9350620004858185602086016200053a565b62000490816200063a565b840191505092915050565b60006020820190508181036000830152620004b781846200045a565b905092915050565b6000620004cb620004de565b9050620004d98282620005a6565b919050565b6000604051905090565b600067ffffffffffffffff8211156200050657620005056200060b565b5b62000511826200063a565b9050602081019050919050565b600081519050919050565b600082825260208201905092915050565b60005b838110156200055a5780820151818401526020810190506200053d565b838111156200056a576000848401525b50505050565b600060028204905060018216806200058957607f821691505b60208210811415620005a0576200059f620005dc565b5b50919050565b620005b1826200063a565b810181811067ffffffffffffffff82111715620005d357620005d26200060b565b5b80604052505050565b7f4e487b7100000000000000000000000000000000000000000000000000000000600052602260045260246000fd5b7f4e487b7100000000000000000000000000000000000000000000000000000000600052604160045260246000fd5b6000601f19601f8301169050919050565b613552806200065b6000396000f3fe6080604052600436106101355760003560e01c80637df124a1116100ab57806398da4c951161006f57806398da4c951461042b578063a22cb46514610469578063b88d4fde14610492578063c87b56dd146104bb578063e985e9c5146104f8578063f2fde38b1461053557610135565b80637df124a1146103325780638af855b81461036f5780638da5cb5b146103ac57806391b7f5ed146103d757806395d89b411461040057610135565b80632c59d163116100fd5780632c59d1631461023157806332af34c01461025c57806342842e0e146102785780636352211e146102a157806370a08231146102de578063715018a61461031b57610135565b806301ffc9a71461013a57806306fdde0314610177578063081812fc146101a2578063095ea7b3146101df57806323b872dd14610208575b600080fd5b34801561014657600080fd5b50610161600480360381019061015c91906124bd565b61055e565b60405161016e919061292b565b60405180910390f35b34801561018357600080fd5b5061018c610640565b6040516101999190612946565b60405180910390f35b3480156101ae57600080fd5b506101c960048036038101906101c49190612554565b6106d2565b6040516101d691906128c4565b60405180910390f35b3480156101eb57600080fd5b5061020660048036038101906102019190612481565b610757565b005b34801561021457600080fd5b5061022f600480360381019061022a919061237b565b61086f565b005b34801561023d57600080fd5b506102466108cf565b6040516102539190612c12565b60405180910390f35b6102766004803603810190610271919061250f565b6108e0565b005b34801561028457600080fd5b5061029f600480360381019061029a919061237b565b610b2b565b005b3480156102ad57600080fd5b506102c860048036038101906102c39190612554565b610b4b565b6040516102d591906128c4565b60405180910390f35b3480156102ea57600080fd5b5061030560048036038101906103009190612316565b610bfd565b6040516103129190612c12565b60405180910390f35b34801561032757600080fd5b50610330610cb5565b005b34801561033e57600080fd5b5061035960048036038101906103549190612316565b610d3d565b6040516103669190612c12565b60405180910390f35b34801561037b57600080fd5b5061039660048036038101906103919190612316565b610d55565b6040516103a3919061292b565b60405180910390f35b3480156103b857600080fd5b506103c1610d69565b6040516103ce91906128c4565b60405180910390f35b3480156103e357600080fd5b506103fe60048036038101906103f99190612554565b610d93565b005b34801561040c57600080fd5b50610415610e19565b6040516104229190612946565b60405180910390f35b34801561043757600080fd5b50610452600480360381019061044d9190612554565b610eab565b604051610460929190612968565b60405180910390f35b34801561047557600080fd5b50610490600480360381019061048b9190612445565b610fdf565b005b34801561049e57600080fd5b506104b960048036038101906104b491906123ca565b610ff5565b005b3480156104c757600080fd5b506104e260048036038101906104dd9190612554565b611057565b6040516104ef9190612946565b60405180910390f35b34801561050457600080fd5b5061051f600480360381019061051a919061233f565b6110fe565b60405161052c919061292b565b60405180910390f35b34801561054157600080fd5b5061055c60048036038101906105579190612316565b611192565b005b60007f80ac58cd000000000000000000000000000000000000000000000000000000007bffffffffffffffffffffffffffffffffffffffffffffffffffffffff1916827bffffffffffffffffffffffffffffffffffffffffffffffffffffffff1916148061062957507f5b5e139f000000000000000000000000000000000000000000000000000000007bffffffffffffffffffffffffffffffffffffffffffffffffffffffff1916827bffffffffffffffffffffffffffffffffffffffffffffffffffffffff1916145b80610639575061063882611323565b5b9050919050565b60606000805461064f90612e37565b80601f016020809104026020016040519081016040528092919081815260200182805461067b90612e37565b80156106c85780601f1061069d576101008083540402835291602001916106c8565b820191906000526020600020905b8154815290600101906020018083116106ab57829003601f168201915b5050505050905090565b60006106dd8261138d565b61071c576040517f08c379a000000000000000000000000000000000000000000000000000000000815260040161071390612b52565b60405180910390fd5b6004600083815260200190815260200160002060009054906101000a900473ffffffffffffffffffffffffffffffffffffffff169050919050565b600061076282610b4b565b90508073ffffffffffffffffffffffffffffffffffffffff168373ffffffffffffffffffffffffffffffffffffffff1614156107d3576040517f08c379a00000000000000000000000000000000000000000000000000000000081526004016107ca90612bb2565b60405180910390fd5b8073ffffffffffffffffffffffffffffffffffffffff166107f26113f9565b73ffffffffffffffffffffffffffffffffffffffff16148061082157506108208161081b6113f9565b6110fe565b5b610860576040517f08c379a000000000000000000000000000000000000000000000000000000000815260040161085790612ad2565b60405180910390fd5b61086a8383611401565b505050565b61088061087a6113f9565b826114ba565b6108bf576040517f08c379a00000000000000000000000000000000000000000000000000000000081526004016108b690612bd2565b60405180910390fd5b6108ca838383611598565b505050565b60006108db600c6117ff565b905090565b600854341015610925576040517f08c379a000000000000000000000000000000000000000000000000000000000815260040161091c90612bf2565b60405180910390fd5b6000610931600c6117ff565b905061093d338261180d565b604051806040016040528084848080601f016020809104026020016040519081016040528093929190818152602001838380828437600081840152601f19601f8201169050808301925050505050505081526020016009805461099f90612e37565b80601f01602080910402602001604051908101604052809291908181526020018280546109cb90612e37565b8015610a185780601f106109ed57610100808354040283529160200191610a18565b820191906000526020600020905b8154815290600101906020018083116109fb57829003601f168201915b5050505050815250600a60008381526020019081526020016000206000820151816000019080519060200190610a4f929190612158565b506020820151816001019080519060200190610a6c929190612158565b50905050610ad86040518060600160405280603881526020016134e5603891398285858080601f016020809104026020016040519081016040528093929190818152602001838380828437600081840152601f19601f820116905080830192505050505050503461182b565b80600b60003373ffffffffffffffffffffffffffffffffffffffff1673ffffffffffffffffffffffffffffffffffffffff16815260200190815260200160002081905550610b26600c6118cd565b505050565b610b4683838360405180602001604052806000815250610ff5565b505050565b6000806002600084815260200190815260200160002060009054906101000a900473ffffffffffffffffffffffffffffffffffffffff169050600073ffffffffffffffffffffffffffffffffffffffff168173ffffffffffffffffffffffffffffffffffffffff161415610bf4576040517f08c379a0000000000000000000000000000000000000000000000000000000008152600401610beb90612b12565b60405180910390fd5b80915050919050565b60008073ffffffffffffffffffffffffffffffffffffffff168273ffffffffffffffffffffffffffffffffffffffff161415610c6e576040517f08c379a0000000000000000000000000000000000000000000000000000000008152600401610c6590612af2565b60405180910390fd5b600360008373ffffffffffffffffffffffffffffffffffffffff1673ffffffffffffffffffffffffffffffffffffffff168152602001908152602001600020549050919050565b610cbd6113f9565b73ffffffffffffffffffffffffffffffffffffffff16610cdb610d69565b73ffffffffffffffffffffffffffffffffffffffff1614610d31576040517f08c379a0000000000000000000000000000000000000000000000000000000008152600401610d2890612b72565b60405180910390fd5b610d3b60006118e3565b565b600b6020528060005260406000206000915090505481565b600080610d6183610bfd565b119050919050565b6000600660009054906101000a900473ffffffffffffffffffffffffffffffffffffffff16905090565b610d9b6113f9565b73ffffffffffffffffffffffffffffffffffffffff16610db9610d69565b73ffffffffffffffffffffffffffffffffffffffff1614610e0f576040517f08c379a0000000000000000000000000000000000000000000000000000000008152600401610e0690612b72565b60405180910390fd5b8060088190555050565b606060018054610e2890612e37565b80601f0160208091040260200160405190810160405280929190818152602001828054610e5490612e37565b8015610ea15780601f10610e7657610100808354040283529160200191610ea1565b820191906000526020600020905b815481529060010190602001808311610e8457829003601f168201915b5050505050905090565b600a602052806000526040600020600091509050806000018054610ece90612e37565b80601f0160208091040260200160405190810160405280929190818152602001828054610efa90612e37565b8015610f475780601f10610f1c57610100808354040283529160200191610f47565b820191906000526020600020905b815481529060010190602001808311610f2a57829003601f168201915b505050505090806001018054610f5c90612e37565b80601f0160208091040260200160405190810160405280929190818152602001828054610f8890612e37565b8015610fd55780601f10610faa57610100808354040283529160200191610fd5565b820191906000526020600020905b815481529060010190602001808311610fb857829003601f168201915b5050505050905082565b610ff1610fea6113f9565b83836119a9565b5050565b6110066110006113f9565b836114ba565b611045576040517f08c379a000000000000000000000000000000000000000000000000000000000815260040161103c90612bd2565b60405180910390fd5b61105184848484611b16565b50505050565b60606110628261138d565b6110a1576040517f08c379a000000000000000000000000000000000000000000000000000000000815260040161109890612b92565b60405180910390fd5b60006110ab611b72565b905060008151116110cb57604051806020016040528060008152506110f6565b806110d584611b89565b6040516020016110e69291906128a0565b6040516020818303038152906040525b915050919050565b6000600560008473ffffffffffffffffffffffffffffffffffffffff1673ffffffffffffffffffffffffffffffffffffffff16815260200190815260200160002060008373ffffffffffffffffffffffffffffffffffffffff1673ffffffffffffffffffffffffffffffffffffffff16815260200190815260200160002060009054906101000a900460ff16905092915050565b61119a6113f9565b73ffffffffffffffffffffffffffffffffffffffff166111b8610d69565b73ffffffffffffffffffffffffffffffffffffffff161461120e576040517f08c379a000000000000000000000000000000000000000000000000000000000815260040161120590612b72565b60405180910390fd5b600073ffffffffffffffffffffffffffffffffffffffff168173ffffffffffffffffffffffffffffffffffffffff16141561127e576040517f08c379a000000000000000000000000000000000000000000000000000000000815260040161127590612a12565b60405180910390fd5b611287816118e3565b50565b6113208160405160240161129e9190612946565b6040516020818303038152906040527f41304fac000000000000000000000000000000000000000000000000000000007bffffffffffffffffffffffffffffffffffffffffffffffffffffffff19166020820180517bffffffffffffffffffffffffffffffffffffffffffffffffffffffff8381831617835250505050611d36565b50565b60007f01ffc9a7000000000000000000000000000000000000000000000000000000007bffffffffffffffffffffffffffffffffffffffffffffffffffffffff1916827bffffffffffffffffffffffffffffffffffffffffffffffffffffffff1916149050919050565b60008073ffffffffffffffffffffffffffffffffffffffff166002600084815260200190815260200160002060009054906101000a900473ffffffffffffffffffffffffffffffffffffffff1673ffffffffffffffffffffffffffffffffffffffff1614159050919050565b600033905090565b816004600083815260200190815260200160002060006101000a81548173ffffffffffffffffffffffffffffffffffffffff021916908373ffffffffffffffffffffffffffffffffffffffff160217905550808273ffffffffffffffffffffffffffffffffffffffff1661147483610b4b565b73ffffffffffffffffffffffffffffffffffffffff167f8c5be1e5ebec7d5bd14f71427d1e84f3dd0314c0f7b2291e5b200ac8c7c3b92560405160405180910390a45050565b60006114c58261138d565b611504576040517f08c379a00000000000000000000000000000000000000000000000000000000081526004016114fb90612ab2565b60405180910390fd5b600061150f83610b4b565b90508073ffffffffffffffffffffffffffffffffffffffff168473ffffffffffffffffffffffffffffffffffffffff16148061157e57508373ffffffffffffffffffffffffffffffffffffffff16611566846106d2565b73ffffffffffffffffffffffffffffffffffffffff16145b8061158f575061158e81856110fe565b5b91505092915050565b8273ffffffffffffffffffffffffffffffffffffffff166115b882610b4b565b73ffffffffffffffffffffffffffffffffffffffff161461160e576040517f08c379a000000000000000000000000000000000000000000000000000000000815260040161160590612a32565b60405180910390fd5b600073ffffffffffffffffffffffffffffffffffffffff168273ffffffffffffffffffffffffffffffffffffffff16141561167e576040517f08c379a000000000000000000000000000000000000000000000000000000000815260040161167590612a72565b60405180910390fd5b611689838383611d5f565b611694600082611401565b6001600360008573ffffffffffffffffffffffffffffffffffffffff1673ffffffffffffffffffffffffffffffffffffffff16815260200190815260200160002060008282546116e49190612d4d565b925050819055506001600360008473ffffffffffffffffffffffffffffffffffffffff1673ffffffffffffffffffffffffffffffffffffffff168152602001908152602001600020600082825461173b9190612cc6565b92505081905550816002600083815260200190815260200160002060006101000a81548173ffffffffffffffffffffffffffffffffffffffff021916908373ffffffffffffffffffffffffffffffffffffffff160217905550808273ffffffffffffffffffffffffffffffffffffffff168473ffffffffffffffffffffffffffffffffffffffff167fddf252ad1be2c89b69c2b068fc378daa952ba7f163c4a11628f55a4df523b3ef60405160405180910390a46117fa838383611d64565b505050565b600081600001549050919050565b611827828260405180602001604052806000815250611d69565b5050565b6118c784848484604051602401611845949392919061299f565b6040516020818303038152906040527fa0c4b225000000000000000000000000000000000000000000000000000000007bffffffffffffffffffffffffffffffffffffffffffffffffffffffff19166020820180517bffffffffffffffffffffffffffffffffffffffffffffffffffffffff8381831617835250505050611d36565b50505050565b6001816000016000828254019250508190555050565b6000600660009054906101000a900473ffffffffffffffffffffffffffffffffffffffff16905081600660006101000a81548173ffffffffffffffffffffffffffffffffffffffff021916908373ffffffffffffffffffffffffffffffffffffffff1602179055508173ffffffffffffffffffffffffffffffffffffffff168173ffffffffffffffffffffffffffffffffffffffff167f8be0079c531659141344cd1fd0a4f28419497f9722a3daafe3b4186f6b6457e060405160405180910390a35050565b8173ffffffffffffffffffffffffffffffffffffffff168373ffffffffffffffffffffffffffffffffffffffff161415611a18576040517f08c379a0000000000000000000000000000000000000000000000000000000008152600401611a0f90612a92565b60405180910390fd5b80600560008573ffffffffffffffffffffffffffffffffffffffff1673ffffffffffffffffffffffffffffffffffffffff16815260200190815260200160002060008473ffffffffffffffffffffffffffffffffffffffff1673ffffffffffffffffffffffffffffffffffffffff16815260200190815260200160002060006101000a81548160ff0219169083151502179055508173ffffffffffffffffffffffffffffffffffffffff168373ffffffffffffffffffffffffffffffffffffffff167f17307eab39ab6107e8899845ad3d59bd9653f200f220920489ca2b5937696c3183604051611b09919061292b565b60405180910390a3505050565b611b21848484611598565b611b2d84848484611dc4565b611b6c576040517f08c379a0000000000000000000000000000000000000000000000000000000008152600401611b63906129f2565b60405180910390fd5b50505050565b606060405180602001604052806000815250905090565b60606000821415611bd1576040518060400160405280600181526020017f30000000000000000000000000000000000000000000000000000000000000008152509050611d31565b600082905060005b60008214611c03578080611bec90612e9a565b915050600a82611bfc9190612d1c565b9150611bd9565b60008167ffffffffffffffff811115611c45577f4e487b7100000000000000000000000000000000000000000000000000000000600052604160045260246000fd5b6040519080825280601f01601f191660200182016040528015611c775781602001600182028036833780820191505090505b5090505b60008514611d2a57600182611c909190612d4d565b9150600a85611c9f9190612ee3565b6030611cab9190612cc6565b60f81b818381518110611ce7577f4e487b7100000000000000000000000000000000000000000000000000000000600052603260045260246000fd5b60200101907effffffffffffffffffffffffffffffffffffffffffffffffffffffffffffff1916908160001a905350600a85611d239190612d1c565b9450611c7b565b8093505050505b919050565b60008151905060006a636f6e736f6c652e6c6f679050602083016000808483855afa5050505050565b505050565b505050565b611d738383611f5b565b611d806000848484611dc4565b611dbf576040517f08c379a0000000000000000000000000000000000000000000000000000000008152600401611db6906129f2565b60405180910390fd5b505050565b6000611de58473ffffffffffffffffffffffffffffffffffffffff16612135565b15611f4e578373ffffffffffffffffffffffffffffffffffffffff1663150b7a02611e0e6113f9565b8786866040518563ffffffff1660e01b8152600401611e3094939291906128df565b602060405180830381600087803b158015611e4a57600080fd5b505af1925050508015611e7b57506040513d601f19601f82011682018060405250810190611e7891906124e6565b60015b611efe573d8060008114611eab576040519150601f19603f3d011682016040523d82523d6000602084013e611eb0565b606091505b50600081511415611ef6576040517f08c379a0000000000000000000000000000000000000000000000000000000008152600401611eed906129f2565b60405180910390fd5b805181602001fd5b63150b7a0260e01b7bffffffffffffffffffffffffffffffffffffffffffffffffffffffff1916817bffffffffffffffffffffffffffffffffffffffffffffffffffffffff191614915050611f53565b600190505b949350505050565b600073ffffffffffffffffffffffffffffffffffffffff168273ffffffffffffffffffffffffffffffffffffffff161415611fcb576040517f08c379a0000000000000000000000000000000000000000000000000000000008152600401611fc290612b32565b60405180910390fd5b611fd48161138d565b15612014576040517f08c379a000000000000000000000000000000000000000000000000000000000815260040161200b90612a52565b60405180910390fd5b61202060008383611d5f565b6001600360008473ffffffffffffffffffffffffffffffffffffffff1673ffffffffffffffffffffffffffffffffffffffff16815260200190815260200160002060008282546120709190612cc6565b92505081905550816002600083815260200190815260200160002060006101000a81548173ffffffffffffffffffffffffffffffffffffffff021916908373ffffffffffffffffffffffffffffffffffffffff160217905550808273ffffffffffffffffffffffffffffffffffffffff16600073ffffffffffffffffffffffffffffffffffffffff167fddf252ad1be2c89b69c2b068fc378daa952ba7f163c4a11628f55a4df523b3ef60405160405180910390a461213160008383611d64565b5050565b6000808273ffffffffffffffffffffffffffffffffffffffff163b119050919050565b82805461216490612e37565b90600052602060002090601f01602090048101928261218657600085556121cd565b82601f1061219f57805160ff19168380011785556121cd565b828001600101855582156121cd579182015b828111156121cc5782518255916020019190600101906121b1565b5b5090506121da91906121de565b5090565b5b808211156121f75760008160009055506001016121df565b5090565b600061220e61220984612c52565b612c2d565b90508281526020810184848401111561222657600080fd5b612231848285612df5565b509392505050565b60008135905061224881613488565b92915050565b60008135905061225d8161349f565b92915050565b600081359050612272816134b6565b92915050565b600081519050612287816134b6565b92915050565b600082601f83011261229e57600080fd5b81356122ae8482602086016121fb565b91505092915050565b60008083601f8401126122c957600080fd5b8235905067ffffffffffffffff8111156122e257600080fd5b6020830191508360018202830111156122fa57600080fd5b9250929050565b600081359050612310816134cd565b92915050565b60006020828403121561232857600080fd5b600061233684828501612239565b91505092915050565b6000806040838503121561235257600080fd5b600061236085828601612239565b925050602061237185828601612239565b9150509250929050565b60008060006060848603121561239057600080fd5b600061239e86828701612239565b93505060206123af86828701612239565b92505060406123c086828701612301565b9150509250925092565b600080600080608085870312156123e057600080fd5b60006123ee87828801612239565b94505060206123ff87828801612239565b935050604061241087828801612301565b925050606085013567ffffffffffffffff81111561242d57600080fd5b6124398782880161228d565b91505092959194509250565b6000806040838503121561245857600080fd5b600061246685828601612239565b92505060206124778582860161224e565b9150509250929050565b6000806040838503121561249457600080fd5b60006124a285828601612239565b92505060206124b385828601612301565b9150509250929050565b6000602082840312156124cf57600080fd5b60006124dd84828501612263565b91505092915050565b6000602082840312156124f857600080fd5b600061250684828501612278565b91505092915050565b6000806020838503121561252257600080fd5b600083013567ffffffffffffffff81111561253c57600080fd5b612548858286016122b7565b92509250509250929050565b60006020828403121561256657600080fd5b600061257484828501612301565b91505092915050565b61258681612d81565b82525050565b61259581612d93565b82525050565b60006125a682612c83565b6125b08185612c99565b93506125c0818560208601612e04565b6125c981612fd0565b840191505092915050565b60006125df82612c8e565b6125e98185612caa565b93506125f9818560208601612e04565b61260281612fd0565b840191505092915050565b600061261882612c8e565b6126228185612cbb565b9350612632818560208601612e04565b80840191505092915050565b600061264b603283612caa565b915061265682612fe1565b604082019050919050565b600061266e602683612caa565b915061267982613030565b604082019050919050565b6000612691602583612caa565b915061269c8261307f565b604082019050919050565b60006126b4601c83612caa565b91506126bf826130ce565b602082019050919050565b60006126d7602483612caa565b91506126e2826130f7565b604082019050919050565b60006126fa601983612caa565b915061270582613146565b602082019050919050565b600061271d602c83612caa565b91506127288261316f565b604082019050919050565b6000612740603883612caa565b915061274b826131be565b604082019050919050565b6000612763602a83612caa565b915061276e8261320d565b604082019050919050565b6000612786602983612caa565b91506127918261325c565b604082019050919050565b60006127a9602083612caa565b91506127b4826132ab565b602082019050919050565b60006127cc602c83612caa565b91506127d7826132d4565b604082019050919050565b60006127ef602083612caa565b91506127fa82613323565b602082019050919050565b6000612812602f83612caa565b915061281d8261334c565b604082019050919050565b6000612835602183612caa565b91506128408261339b565b604082019050919050565b6000612858603183612caa565b9150612863826133ea565b604082019050919050565b600061287b602183612caa565b915061288682613439565b604082019050919050565b61289a81612deb565b82525050565b60006128ac828561260d565b91506128b8828461260d565b91508190509392505050565b60006020820190506128d9600083018461257d565b92915050565b60006080820190506128f4600083018761257d565b612901602083018661257d565b61290e6040830185612891565b8181036060830152612920818461259b565b905095945050505050565b6000602082019050612940600083018461258c565b92915050565b6000602082019050818103600083015261296081846125d4565b905092915050565b6000604082019050818103600083015261298281856125d4565b9050818103602083015261299681846125d4565b90509392505050565b600060808201905081810360008301526129b981876125d4565b90506129c86020830186612891565b81810360408301526129da81856125d4565b90506129e96060830184612891565b95945050505050565b60006020820190508181036000830152612a0b8161263e565b9050919050565b60006020820190508181036000830152612a2b81612661565b9050919050565b60006020820190508181036000830152612a4b81612684565b9050919050565b60006020820190508181036000830152612a6b816126a7565b9050919050565b60006020820190508181036000830152612a8b816126ca565b9050919050565b60006020820190508181036000830152612aab816126ed565b9050919050565b60006020820190508181036000830152612acb81612710565b9050919050565b60006020820190508181036000830152612aeb81612733565b9050919050565b60006020820190508181036000830152612b0b81612756565b9050919050565b60006020820190508181036000830152612b2b81612779565b9050919050565b60006020820190508181036000830152612b4b8161279c565b9050919050565b60006020820190508181036000830152612b6b816127bf565b9050919050565b60006020820190508181036000830152612b8b816127e2565b9050919050565b60006020820190508181036000830152612bab81612805565b9050919050565b60006020820190508181036000830152612bcb81612828565b9050919050565b60006020820190508181036000830152612beb8161284b565b9050919050565b60006020820190508181036000830152612c0b8161286e565b9050919050565b6000602082019050612c276000830184612891565b92915050565b6000612c37612c48565b9050612c438282612e69565b919050565b6000604051905090565b600067ffffffffffffffff821115612c6d57612c6c612fa1565b5b612c7682612fd0565b9050602081019050919050565b600081519050919050565b600081519050919050565b600082825260208201905092915050565b600082825260208201905092915050565b600081905092915050565b6000612cd182612deb565b9150612cdc83612deb565b9250827fffffffffffffffffffffffffffffffffffffffffffffffffffffffffffffffff03821115612d1157612d10612f14565b5b828201905092915050565b6000612d2782612deb565b9150612d3283612deb565b925082612d4257612d41612f43565b5b828204905092915050565b6000612d5882612deb565b9150612d6383612deb565b925082821015612d7657612d75612f14565b5b828203905092915050565b6000612d8c82612dcb565b9050919050565b60008115159050919050565b60007fffffffff0000000000000000000000000000000000000000000000000000000082169050919050565b600073ffffffffffffffffffffffffffffffffffffffff82169050919050565b6000819050919050565b82818337600083830152505050565b60005b83811015612e22578082015181840152602081019050612e07565b83811115612e31576000848401525b50505050565b60006002820490506001821680612e4f57607f821691505b60208210811415612e6357612e62612f72565b5b50919050565b612e7282612fd0565b810181811067ffffffffffffffff82111715612e9157612e90612fa1565b5b80604052505050565b6000612ea582612deb565b91507fffffffffffffffffffffffffffffffffffffffffffffffffffffffffffffffff821415612ed857612ed7612f14565b5b600182019050919050565b6000612eee82612deb565b9150612ef983612deb565b925082612f0957612f08612f43565b5b828206905092915050565b7f4e487b7100000000000000000000000000000000000000000000000000000000600052601160045260246000fd5b7f4e487b7100000000000000000000000000000000000000000000000000000000600052601260045260246000fd5b7f4e487b7100000000000000000000000000000000000000000000000000000000600052602260045260246000fd5b7f4e487b7100000000000000000000000000000000000000000000000000000000600052604160045260246000fd5b6000601f19601f8301169050919050565b7f4552433732313a207472616e7366657220746f206e6f6e20455243373231526560008201527f63656976657220696d706c656d656e7465720000000000000000000000000000602082015250565b7f4f776e61626c653a206e6577206f776e657220697320746865207a65726f206160008201527f6464726573730000000000000000000000000000000000000000000000000000602082015250565b7f4552433732313a207472616e736665722066726f6d20696e636f72726563742060008201527f6f776e6572000000000000000000000000000000000000000000000000000000602082015250565b7f4552433732313a20746f6b656e20616c7265616479206d696e74656400000000600082015250565b7f4552433732313a207472616e7366657220746f20746865207a65726f2061646460008201527f7265737300000000000000000000000000000000000000000000000000000000602082015250565b7f4552433732313a20617070726f766520746f2063616c6c657200000000000000600082015250565b7f4552433732313a206f70657261746f7220717565727920666f72206e6f6e657860008201527f697374656e7420746f6b656e0000000000000000000000000000000000000000602082015250565b7f4552433732313a20617070726f76652063616c6c6572206973206e6f74206f7760008201527f6e6572206e6f7220617070726f76656420666f7220616c6c0000000000000000602082015250565b7f4552433732313a2062616c616e636520717565727920666f7220746865207a6560008201527f726f206164647265737300000000000000000000000000000000000000000000602082015250565b7f4552433732313a206f776e657220717565727920666f72206e6f6e657869737460008201527f656e7420746f6b656e0000000000000000000000000000000000000000000000602082015250565b7f4552433732313a206d696e7420746f20746865207a65726f2061646472657373600082015250565b7f4552433732313a20617070726f76656420717565727920666f72206e6f6e657860008201527f697374656e7420746f6b656e0000000000000000000000000000000000000000602082015250565b7f4f776e61626c653a2063616c6c6572206973206e6f7420746865206f776e6572600082015250565b7f4552433732314d657461646174613a2055524920717565727920666f72206e6f60008201527f6e6578697374656e7420746f6b656e0000000000000000000000000000000000602082015250565b7f4552433732313a20617070726f76616c20746f2063757272656e74206f776e6560008201527f7200000000000000000000000000000000000000000000000000000000000000602082015250565b7f4552433732313a207472616e736665722063616c6c6572206973206e6f74206f60008201527f776e6572206e6f7220617070726f766564000000000000000000000000000000602082015250565b7f4e6f7420656e6f756768204554482073656e743b20636865636b20707269636560008201527f2100000000000000000000000000000000000000000000000000000000000000602082015250565b61349181612d81565b811461349c57600080fd5b50565b6134a881612d93565b81146134b357600080fd5b50565b6134bf81612d9f565b81146134ca57600080fd5b50565b6134d681612deb565b81146134e157600080fd5b5056fe4d696e7465642044756e67656f6e204e465420772f20746f6b656e49642025732c206e616d6520257320616e64207072696365203a202573a26469706673582212200a7be36553f35349fe1b121fb88713f0ef433bdefba38b0c36d2d06eaf49ffc364736f6c63430008040033446f6e6520696e697469616c697a696e672064756e67656f6e20636f6e7472616374",
  "linkReferences": {},
  "deployedLinkReferences": {}
}